:100000000C942A000C943F000C943F000C943F0089
:100010000C943F000C943F000C943F000C943F0064
:100020000C943F000C943F000C943F000C943F0054
:100030000C943F000C943F000C943F000C943F0044
:100040000C943F000C943F000C943F000C943F0034
:100050000C943F0011241FBECFE5D4E0DEBFCDBF1E
:1000600011E0A0E6B0E0EAEBF5E002C005900D92E9
:10007000A430B107D9F70E947F010C94DB020C94E5
:10008000000010BC83E389B988E18AB98EE880BD9D
:1000900008955D9BFECF8CB908955F9BFECF8CB118
:1000A0000895FC018285863429F0853331F0883348
:1000B00039F0089581E090E0089582E090E008959D
:1000C00084E090E00895282F207F2C5F28BBEFEC80
:1000D000F7E03197F1F700C0000028B3245028BBA7
:1000E00082959295907F9827807F98278C5F88BB18
:1000F0008FEC97E00197F1F700C0000088B38450BF
:1001000088BB0895282F207F2B5F28BBEFECF7E0FA
:100110003197F1F700C0000028B3245028BB829526
:100120009295907F9827807F98278B5F88BB8FEC74
:1001300097E00197F1F700C0000088B3845088BBB6
:100140000895EF92FF920F931F93CF93DF93EC01EB
:1001500084E090E00E946300209729F480E390E01F
:100160000E94820012C00F2EFAE0EF2EF12CF02D2B
:10017000CE01B7010E94B302062F172FC0960E942E
:100180008200C02FD12F209799F786E090E00E943F
:100190006300DF91CF911F910F91FF90EF90089531
:1001A00081E090E00E9463008FE097E20197F1F711
:1001B00000C00000089582E090E00E94630088E2A1
:1001C00090E00E9463008CE090E00E94630086E073
:1001D00090E00E94630008952F923F924F925F92A9
:1001E0006F927F928F929F92AF92BF92CF92DF9247
:1001F000EF92FF920F931F93CF93DF93DC018C91CB
:10020000882309F453C0FD013196A12CB12C01C003
:10021000590195012F5F3F4F91919111F9CF2FEF28
:1002200089E698E1215080409040E1F700C000004D
:10023000EFEFAE1ABE0A1A141B044CF14DC0FFEFCB
:100240004F1A5F0AC6018E016C012FEFC21AD20A43
:100250000E946300F70181917F01219690E00E9446
:1002600082008FEC97E00197F1F700C000000F309B
:10027000110549F1A414B50421F08E01C032D10555
:10028000F4F2800E911E8A149B0434F025C03D01C7
:10029000812C912C212C312C7301E80CF91C2401A8
:1002A000C22DE0E0DE2F80E8932DCDCFFFEF29E6D1
:1002B00088E1F15020408040E1F700C00000AA240E
:1002C000A394B12CE4CFA414B504D9F20F2EF0EC12
:1002D000CF2EF02DD12CB3CFDF91CF911F910F9165
:1002E000FF90EF90DF90CF90BF90AF909F908F9056
:1002F0007F906F905F904F903F902F900895CF9395
:10030000DF93CDB7DEB760970FB6F894DEBF0FBEB0
:10031000CDBF8FEF87BB8EEF81BB0E9441008FE185
:100320009EE40197F1F700C000000E94DB009FEF00
:10033000E0E7F2E09150E040F040E1F700C000005B
:10034000188A1F861E861D86612C712C412C512C0B
:10035000812C912CA12CB12C6E012DE0C20ED11C50
:100360008FEF90E7E2E081509040E040E1F700C07D
:1003700000008E010F5F1F4F78010E944D00382E44
:100380000E944900F70131927F01EC15FD05A9F7A4
:100390001D8680E890E00E946300F80181918F0142
:1003A00090E00E9482008FE19EE40197F1F700C087
:1003B00000000C151D0589F780E690E00E94EC0016
:1003C0006CE070E0CE0101960E9451008C010E9409
:1003D000D00085EC90E00E946300C8010E94A1005B
:1003E0009FEFEEE9F4E29150E040F040E1F700C009
:1003F000000001301105F9F40E94D0008DE790E073
:100400000E94EC002FEF89E698E121508040904057
:10041000E1F700C00000E1E06E16710439F0FFEF73
:10042000AF1ABF0A66246394712C9ACF8FE890E0CC
:100430000E94EC0095CF02301105F9F40E94D00023
:1004400081EB90E00E94EC002FEF89E698E12150CB
:1004500080409040E1F700C00000ED85FE853197B7
:1004600039F0FFEF8F1A9F0A21E02D871E8678CF83
:100470008FE890E00E94EC0073CF03301105F9F48F
:100480000E94D00083EC90E00E94EC008FEF99E690
:10049000E8E181509040E040E1F700C000008F8526
:1004A0009889019739F09FEF491A590AE1E0EF87DF
:1004B000188A56CF8FE890E00E94EC0051CF0430AC
:1004C000110509F04DCF0E94D00085ED90E00E940B
:1004D000EC00FFEF29E688E1F15020408040E1F791
:1004E00000C000000E94D00085EE90E00E94EC0069
:1004F00085EC90E00E946300C5010E94A1009FEF7F
:10050000E3EDF0E39150E040F040E1F700C000007F
:100510000E94D0008FEE90E00E94EC0085EC90E00D
:100520000E946300C4010E94A1002FEF83ED90E3BD
:10053000215080409040E1F700C0000089EF90E03A
:100540000E94EC0085EC90E00E946300C2010E94D2
:10055000A100EFEFF3ED20E3E150F0402040E1F7A0
:1005600000C00000FDCE97FB072E16F4009407D0C4
:1005700077FD09D00E94C70207FC05D03EF4909594
:1005800081959F4F0895709561957F4F0895AA1B9F
:10059000BB1B51E107C0AA1FBB1FA617B70710F06E
:1005A000A61BB70B881F991F5A95A9F780959095A0
:0A05B000BC01CD010895F894FFCFBF
:1005BA00417474656E64616E636520697320626557
:1005CA00696E67207265636F726465640057656C53
:1005DA00636F6D652073747564656E74204100598C
:1005EA006F757220617474656E64616E63652069EB
:1005FA0073206265696E67207265636F72646564F1
:10060A000057656C636F6D652073747564656E74ED
:10061A0020420057656C636F6D652073747564655D
:10062A006E7420430057656C636F6D652074656155
:10063A00636865720053747564656E742041005373
:10064A00747564656E7420420053747564656E74C3
:04065A002043000039
:00000001FF
